:400000000080002011000000290400002904000080B500AF024A034B1B68136000F00EFABC760040FA46004010B5054C237833B9044B13B10448AFF300800123237010BDB5
:40004000A885FF1F000000002C940200084B10B51BB108490848AFF300800848036803B910BD074B002BFBD0BDE81040184700BF00000000AC85FF1F2C940200C880FF1FB6
:400080000000000080B582B000AF0346FB80FB88184600F0B9FA0837BD4680BD80B582B000AF786039603B681946786800F0C8FA0837BD4680BD00BF80B582B000AF78601C
:4000C00039603A680021786829F082F90837BD4680BD00BF80B584B000AFF860B9607A607A68B968F86829F07BF91037BD4680BD80B483B000AF0346FB71FEE780B487B0FD
:4001000000AF7860396000233B6100237B6127E07B699B007A6813441B68BB60BB68FB73BB6823F0FF03BB6014E03B695B003A6813441B781A46BB68134419463B695B00E9
:400140003A6813445B780B703B6901333B61FB7B013BFB73FB7B002BE7D17B6901337B617B690F2BD4D91C37BD4680BC704700BF80B582B000AF414B02221A80404B18225F
:400180001A70404B02221A704FF0402308221A703D4B43F219321A803C4B09221A703B4B1B7843F2C8237B6006E04FF4F07029F0D3F87B68013B7B607B68002B05D0334B6C
:4001C0001B78DBB25BB2002BEFDB7B68002B02D10120FFF78DFF4FF0402348221A702C4B20221A702B4B40F21C621A802A4B42F251221A800023FB7019237B6014E0FB78FE
:400200005B00DAB2254B1B78DBB203F00103DBB21343DBB203F00303FB704FF4F07029F09BF87B68013B7B607B68002B02D0FB78032BE4D17B68002B02D10320FFF758FFAC
:40024000174B4FF480721A80154B07221A70154B00221A70144B48221A70114B00221A70124B02221A70124A114B1B78DBB243F00103DBB213700837BD4680BD804000402A
:40028000824000400043004012420040104200400042004022420040204200402542004004400040064000400840004001400040A243004080B483B000AF0A4B1B78FB7182
:4002C000094AFB7903F00703DBB21370074AFB791B09DBB21370064B44221A700C37BD4680BC7047CF0100496E5800406F5800407658004080B582B000AF72B6384A384B40
:400300001B78DBB243F00403DBB213700023FB7113E0FA7913465B0013445B00314A13443B603B681A683B689B889BB219461046FFF7C2FEFB790133FB71FB79082BE8D96C
:4003400029494FF09040FFF7D9FE284A274B1B78DBB243F00203DBB21370254A244B1B78DBB243F00203DBB21370224A214B1B78DBB243F04003DBB213701F4A1E4B1B78BA
:40038000DBB243F01003DBB2137008221B491C48FFF7A0FE08221B491B48FFF79BFE08221A491B48FFF796FE08221A491A48FFF791FE1A4A194B1B78DBB243F00803DBB2B3
:4003C0001370174B61221A70FFF7D2FEFFF772FF0E2208491348FFF77DFE0837BD4680BDE8460040E8DD0200400000480350014013500140A0430040C243004078030048F2
:40040000025100408003004812510040880300483251004090030048425100402243004000480040B043004080B500AF28F0A4FF03461B680C2B00D1FEE7FEE780B586B06F
:4004400000AF224B7B61224B3B61204B7B6135E03B691B68FB603B695B68BB603B699B683B6000237B600CE0FB681A68BB681A60BB680433BB60FB680433FB607B680433E9
:400480007B607A683B689A42EED13B69DB683B6000237B6008E0BB6800221A60BB680433BB607B6804337B607A683B689A42F2D13B6910333B617B69013B7B617B69002BFE
:4004C000C6D128F05FFF28F043FAFEE70100000064FC020080B582B000AF174B174A1A60174A174B1B6843F40073136000237B600FE07B68032B04D8124A7B6852F82330E6
:4005000000E0114B11497A6841F822307B6801337B607B682F2BECD90D4B1B78DAB20D4B1A700D4B094A1A60FFF7E4FE0B4B00221A600837BD4680BD0CED00E00004FA0521
:4005400014ED00E000000000290400000080FF1FBC760040C480FF1F08ED00E0C080FF1F80B400AFBD4680BC704700BF80B400AF044B00221A70044B02221A70BD4680BC16
:40058000704700BF266400403664004080B500AF054B1B78002B04D1FFF7E8FF024B01221A70FFF7DDFF80BD8062002080B485B000AF03463960FB711346BB800023FB60FA
:4005C00013E00E4B1B78DBB203F00103002BF8D10B4AFB7913700B49FB685B003A6813441B880B80FB680133FB60BA88FB689A42E7D81437BD4680BC704700BF67640040E2
:40060000466400405664004080B483B000AF0346FB80084B1B78DBB203F00103002BF8D1054B00221A70054AFB8813800C37BD4680BC704767640040466400405664004015
:4006400080B582B000AF786039603B689BB21A4679680120FFF7AAFF0837BD4680BD00BF80B485B000AF0346FB710A4B1B78DBB223F01003FB730749FB791B01DBB203F08E
:400680001003DAB2FB7B1343DBB20B701437BD4680BC70474051004080B582B000AF786008E00C4B1B68184628F056FE7B68A3F500437B607B68B3F5004FF2D8064B1B682A
:4006C0007A6802FB03F3184628F046FE0837BD4680BD00BF4085FF1F3885FF1F80B586B000AF78603960534B3B225349002018F079FB00237B613968786825F023FF786121
:400700007B69002B06D14D4B41224B49032018F069FBFEE77B69002B01D1002385E0484B1B68002B05D1786925F0CEF80246444B1A600C21786924F01BFE38613B69002BA0
:4007400006D13E4B48223C49032018F04BFBFEE73B69002B01D1002367E03B6900221A603A69937A43F0030393723A69937A6FF3C7039372786924F099FF03461A463B69E0
:400780009A80786924F0A0FF03461A463B69DA803A69937A43F0040393723B694FF6FF721A812849786924F0CBFD2749786924F0D3FD3B68002B1AD10021786924F022FDAF
:4007C0007B68002B09D03A69937A43F0040393720021786924F0B6FC20E03A69937A6FF3820393721949786924F0ACFC16E0386825F082F8F860FB689B7AC3F38003D9B207
:400800003A69937A61F382039372FB681B681946786900F01FF8786924F0A6FC0C4B6F220549012018F0DEFA7B6918461837BD4680BD00BF30DE020048DE020060DE020027
:40084000285E0020490D0000F90A00005488FF1F70DE020090B58DB004AF78603960386821F0F2FB0346FB77786825F045F8B861FB7F012B04D0022B10D0002B07D014E068
:40088000834B87228349002018F0ACFA13E0824B8A228049002018F0A5FA0CE07F4B8D227C49002018F09EFA05E07D4B90227949022018F097FAFB7F032B21D1794B96224F
:4008C0007449022018F08EFABB699B7A03F00303DBB2022B06D0BB699B7A03F00303DBB2012B04D1BB691B68184618F077FCBB6900221A60BA69937A43F003039372C3E0B6
:4009000007F10C031946386821F066FAFB7F002B1CD1654BA6225F49012018F063FABB699B7A03F00303DBB2012B06D0BB699B7A03F00303DBB2022B04D1BB691B68184681
:4009400018F04CFCBB693A681A603AE0FB7F012B02D0FB7F022B34D1BB691A683B689A422FD0BB699B7A03F00303DBB2012B06D0BB699B7A03F00303DBB2022B04D1BB69DF
:400980001B68184618F02AFC386828F046FD03460133184618F0E2FB78617B69002B06D1424BB5223B49032018F01CFAFEE77B69002B69D03968786928F027FDBB697A6993
:4009C0001A60FB7F022B2CD1786803F06FF838613B69596A3B69B3F928403B69B3F92A3007F108000022029243F6FF720192009323460A46396818F0C7FFB7F908309BB25A
:400A0000C3F30A039AB2FB6862F39423FB60B7F90A309BB2C3F30A039AB2FB8962F34F13FB81FB7F03F00303D9B2BA69937A61F301039372FB68C3F38A239BB21AB2BB6952
:400A40009A80FB89C3F34A139BB21AB2BB69DA803B7BC3F30403D9B2BA69937A61F3C7039372786800F032F80346002B09D0BB69B3F90410BB69B3F906301A46786826F056
:400A8000CDF9786826F02CF82437BD4690BD00BF80DE020048DE0200B0DE0200E4DE020014DF020034DF020058DF020060DE020080B584B000AF7860786824F01DFFF86035
:400AC000FB681B6818461037BD4680BD80B584B000AF7860786824F00FFFF860FB689B7A03F00403DBB2002B14BF01230023DBB218461037BD4680BD90B5A1B004AFF8608A
:400B0000B9601346FB71F86824F0ECFDB866F86824F0F2FE7866FB79022B2CD1002387F86F307B6E9B7A03F00303DBB2032B06D07B6E9B7A03F00303DBB2022B01D100230D
:400B4000F5E07B6E9B7A23F00703DBB2202B06D07B6E9B7A23F00703DBB2082B08D1FB6810331946B86819F04BFC034687F86F3097F86F30DBE0FB79002B40F0D7807B6E4F
:400B8000B3F90630002B04D07B6EB3F90430002B01D10123CBE0F86824F060FE034687F8633007F158031946F86824F03DFD7B6E9B7A03F00303DBB2012B06D07B6E9B7AAE
:400BC00003F00303DBB2002B74D15B4B4FF4A4725A49002018F006F9B7F95A30A7F85230B7F95A309AB27B6EB3F906309BB213449BB2013B9BB21BB2A7F8563053E0B7F93B
:400C00005830A7F85030B7F958309AB27B6EB3F904309BB213449BB2013B9BB21BB2A7F8543022E07B6E1A6807F1500097F863300093BB6EB96821F079F8B7F950309AB2A4
:400C40007B6EB3F904309BB213449BB21BB2A7F85030B7F954309AB27B6EB3F904309BB213449BB21BB2A7F85430B7F95020B7F95C309A42D6DBB7F952309AB27B6EB3F9A8
:400C800006309BB213449BB21BB2A7F85230B7F956309AB27B6EB3F906309BB213449BB21BB2A7F85630B7F95220B7F95E309A42A5DB3BE07B6E9B7A03F00303DBB2022B67
:400CC00022D11F4B40F255121C49002018F08AF807F11403B96E184623F094FBBB6E1B8EBB867B6E1B6897F8634007F1140107F158000022029200220192009323460A46F4
:400D0000B96822F08BF911E00E4B4FF4AE720B49022018F067F8FB6803F1100097F863300093BB6E0022B96821F000F8012318467437BD4690BD00BF90DF020048DE02000C
:400D4000B4DF0200D8DF020080B588B000AFF8600B467A60FB72424B1B68F97A7A68F86898470346BB77BB7F012B01D0BB7F72E0F86824F0C1FDB861FB7A002B1BD1BB693C
:400D80009B7A03F00303DBB2012B06D0BB699B7A03F00303DBB2022B57D1BB691B68184618F01CFABB6900221A60BA69937A43F0030393724EE0FB7A032B0DD1BB699B7A49
:400DC00003F00303DBB2022B41D1BB691B681946F868FFF73FFD3DE0FB7A052B1BD1BB691B894FF6FF72934233D0BB691B89184625F0C6FA78617B69002B04D07969F86899
:400E0000FFF728FD25E0174B4FF4C4721649022017F0E8FF1EE0FB7A062B1BD17B683B610023FB7708E0FA7F3B6953F82230002B05D0FB7F0133FB77FB7F062BF3D9FA7FF2
:400E40003B690A4943F8221004E000BF02E000BF00E000BFBB7F18462037BD4680BD00BF285E002004E0020048DE020038E0020080B588B002AF786039606B4B4E226B4906
:400E8000002017F0AFFF3968786807F0B7FB78617B69002B06D1664B52226449032017F0A1FFFEE77B69002B01D10023B7E0614B1B68002B05D1786924F006FD02465D4B40
:400EC0001A603821786924F053FA38613B69002B06D1574B59225549032017F083FFFEE73B69002B01D1002399E03B6900229A623B69002283F82C203A6992F82D306FF3DA
:400F0000000382F82D303B6900225A633B6900221A634949786924F013FA3B68002B4CD178224FF4A071786925F078FF00230093002305220021786925F0FAFF3F497869BE
:400F400007F0FEFD3E49786907F06CFC00F084FAF860FB68002B5AD0FB68D3F8D8301A460021786900F0BAF8FB68D3F8DC301A460121786900F0B2F8FB68D3F8E0301A462B
:400F80000221786900F0AAF8FB68D3F8E4301A460321786900F0A2F8FB68D3F8E8301A460421786900F09AF8FB68D3F8EC301A460521786900F092F82AE0386824F09CFCBB
:400FC000B8603B6900229A62BB689A6A3B699A62BB6893F82C203B6983F82C20BB6893F82D30C3F30003D9B23A6992F82D3061F3000382F82D30BB685A6B3B695A63BB6878
:401000001A6B3B691A63786924F0AEF800E000BF0C4B8A220549012017F0E4FE7B6918461837BD4680BD00BF9CE00200B4E0020060DE0200345E00205D110000D11100008F
:40104000CC82FF1FCCE0020080B584B000AF78603960786824F050FCF860FB689B6A002B18D0FB6893F82D3003F00103DBB2002B10D0FB689B6A18460CF06AF90346FB7205
:40108000FB689A6AFB7A43F00803DBB2194610460CF03EF8FB683A689A62FB689B6A002B18D0FB6893F82D3003F00103DBB2002B10D0FB689B6A18460CF04AF90346FB7291
:4010C000FB689A6AFB7A23F00803DBB2194610460CF01EF81037BD4680BD00BF80B584B000AFF8600B467A60FB72FB7A052B32D801A252F823F000BF111100001D11000096
:401100002911000035110000411100004D1100007A680021F86807F05FFD1CE07A680121F86807F059FD16E07A680221F86807F053FD10E07A680321F86807F04DFD0AE0F9
:401140007A680421F86807F047FD04E07A680521F86807F041FD1037BD4680BD80B586B000AFF8600B467A60FB72174B1B68F97A7A68F86898470346BB75BB7D012B01D094
:40118000BB7D1CE0FB7A002B18D0FB7A062B15D17B683B610023FB7508E0FA7D3B6953F82230002B05D0FB7D0133FB75FB7D062BF3D9FA7D3B69054943F82210BB7D184638
:4011C0001837BD4680BD00BF345E0020E0E0020080B586B000AF78603960786824F08CFB38610123FB758849386828F004F90346002B05D18549786807F014FB0123FFE073
:401200008349386828F0F7F80346002B05D18149786807F007FB0123F2E07F49386828F0EAF80346002B05D17C49786807F0FAFA0123E5E07A49386828F0DDF80346002B6F
:4012400013D13B695B6B002B06D03B695B6B786898470346FB7506E000217868FFF7F4FE786825F0C7FBFB7DCAE06E49386828F0C2F80346002B15D13B691B6B002B06D0E7
:401280003B691B6B786898470346FB7508E000217868FFF7D9FE786825F0ACFB0346FB75FB7DADE0FB7D012B01D0FB7DA8E03B699B6A002B01D1FB7DA2E05B49386828F00B
:4012C0009AF80346002B06D13B699B6A0A2118460EF062F993E05549386828F08CF80346002B05D13B699B6A18460CF0AFF886E04F49386828F07FF80346002B05D13B692A
:401300009B6A18460CF08CF879E04A49386828F072F80346002B05D13B699B6A18460EF0EBFA6CE04449386828F065F80346002B5FD13B699B6A18460BF0FAFF0346FB8136
:401340003B699B6A18460BF0D3FFB860BB681B782D2B19D13B699B6A012118460EF064FB3B699B6A18460EF0C7FA3B699B6A2B2118460EF011F93B699B6AB7F90E20114604
:4013800018460EF051FB3AE0BB681B782B2B19D13B699B6A012118460EF046FB3B699B6A18460EF0A9FA3B699B6A2D2118460EF0F3F83B699B6AB7F90E20114618460EF0ED
:4013C00033FB1CE03B699B6A002118460EF02CFB3B699B6A2D2118460EF0DEF83B699A6AFB8901339BB21BB2194610460EF01CFB05E03B699B6A396818460EF0A5F90123BC
:4014000018461837BD4680BDE8E00200CC82FF1FECE002007C83FF1FF0E002002C84FF1FF4E00200F8E00200FCE0020004E1020008E102000CE1020014E1020080B483B051
:4014400000AF7860034A7B6813600C37BD4680BC704700BF385E002080B400AF024B1B681846BD4680BC7047385E002080B485B000AFB88039801346FB707B79C3F3C40399
:40148000DBB29BB2FA7892B202FB03F39AB27B78C3F3C403DBB29BB2F978C1F1FF0189B201FB03F39BB213449BB21B0A9BB2DBB203F01F03DAB27B7B62F3C7037B73BB88EC
:4014C000C3F34513DBB29BB2FA7892B202FB03F39AB23B88C3F34513DBB29BB2F978C1F1FF0189B201FB03F39BB213449BB21B0A9BB2DBB203F03F03DAB2BB8962F34A136D
:40150000BB813B79C3F30403DBB29BB2FA7892B202FB03F39AB23B78C3F30403DBB29BB2F978C1F1FF0189B201FB03F39BB213449BB21B0A9BB2DBB203F01F03DAB23B7B4E
:4015400062F304033B73BB8918461437BD4680BC704700BF80B500AF1749184822F052FF1749184822F04EFF164A164B5B889380144BB3F91830DA0F13445B101AB2114BBC
:401580001A83104BB3F91630DA0F13445B101AB20C4BDA820C490D4822F034FF0B4B02229A810A4A0A4B1B8853810A4B064A1A60084B014A5A6080BDCC88FF1FE45F0020EA
:4015C0000889FF1F206000205488FF1F5C60002018E102003C5E002080B400AF084B094ADA60074B084A1A61054B084A5A61044B074A9A61024B074ADA61BD4680BC704768
:401600003C5E00204489FF1F8089FF1FBC89FF1FF889FF1F348AFF1F80B500AF1049114822F0F0FE0E49104822F0ECFE0C490F4822F0E8FE0B4A0E4B1B8813840A4A0D4B87
:401640001B881384094A0C4B1B8813840B4B054A5A630A4B044A9A63084B044ADA6380BD5488FF1F98600020D4600020106100201CE1020020E1020024E102003C5E002075
:4016800080B400AF044B054A1A64034B034A5A64BD4680BC704700BF3C5E0020E45F002080B400AF024B034A9A64BD4680BC70473C5E0020E45F002080B500AF0C490D48E4
:4016C00022F0A0FE0B4B0A225A820A4B43F6FF72DA80084B03229A81064B4C22DA73054A044B5B881382044B024ADA6480BD00BF0889FF1F086200203C5E002080B400AF23
:40170000044B054A1A65034B044A5A65BD4680BC704700BF3C5E0020CC88FF1F0889FF1F80B500AF09490A4822F06CFE084B05221A83074B0522DA82064B054A9A65054BC2
:40174000054ADA65034B014A1A6680BDCC88FF1F4C6100203C5E00200889FF1F80B500AF0B490C4822F04EFE0A4B03221A83094B0322DA82084B074A5A67074B074A9A67FE
:40178000054B034ADA67044B014AC3F8802080BDCC88FF1F886100203C5E00200889FF1F90B583B000AF1849184822F02BFE174A174B1B889386154B0222DA86154B1B88AC
:4017C0003B80124C114B7F2239885888FFF74EFE60803B796FF304033B71BB886FF34A13BB807B796FF3C7037B71084C074B7F22B9889888FFF73AFEA080074B034A5A66A9
:401800000C37BD4690BD00BF0889FF1FC461002028E102002CE102003C5E002080B500AF0D490E4822F0EEFD0C4A0B4B9B8893860A4B0222DA86094A094B1B885380074AD2
:40184000054B5B889380054A054B1B881384054B024A9A6680BD00BFC46100204462002020E102003C5E002080B400AF034B044AC3F88420BD4680BC704700BF3C5E00209C
:40188000CC88FF1F80B400AF0D4B0E4AC3F8A8200B4B0D4AC3F8AC20094B0C4AC3F8B020074B0B4AC3F8B420054B0A4AC3F8B820034B094AC3F8BC20BD4680BC704700BFDD
:4018C0003C5E0020A087FF1FCC88FF1F8089FF1FBC89FF1FF889FF1F348AFF1F80B400AF0D4B0E4AC3F8C0200B4B0D4AC3F8C420094B0C4AC3F8C820074B0B4AC3F8CC205D
:40190000054B0A4AC3F8D020034B094AC3F8D420BD4680BC704700BF3C5E0020CC88FF1F4489FF1F8089FF1FBC89FF1FF889FF1F348AFF1F80B400AF0D4B0E4AC3F8D820F1
:401940000B4B0D4AC3F8DC20094B0C4AC3F8E020074B0B4AC3F8E420054B0A4AC3F8E820034B094AC3F8EC20BD4680BC704700BF3C5E0020CC88FF1F4489FF1F8089FF1F76
:40198000BC89FF1FF889FF1F348AFF1F80B400AF094B0A4AC3F8F020074B094AC3F8F420054B084AC3F8F820034B074AC3F8FC20BD4680BC704700BF3C5E0020CC88FF1FB3
:4019C000A087FF1F4489FF1FF889FF1F80B400AF074B084AC3F80021054B074AC3F80421034B064AC3F80821BD4680BC704700BF3C5E0020CC88FF1F1888FF1F2060002073
:401A000080B400AF094B0A4AC3F80C21074B084AC3F81021054B0022C3F81421034B054AC3F81821BD4680BC704700BF3C5E0020CC88FF1F2060002080B400AF114B124A94
:401A4000C3F828210F4B114AC3F82C210D4B104AC3F830210B4B0F4AC3F83421094B0E4AC3F83821074B0D4AC3F83C21054B0C4AC3F84021034B0B4AC3F84421BD4680BCE3
:401A8000704700BF3C5E0020CC88FF1FDC87FF1F206000204489FF1F8089FF1FBC89FF1FF889FF1F348AFF1F80B400AF074B084AC3F84821054B074AC3F84C21034B064A61
:401AC000C3F85021BD4680BC704700BF3C5E0020CC88FF1F9088FF1F2060002080B400AF054B064AC3F85421034B054AC3F85821BD4680BC704700BF3C5E0020CC88FF1F9E
:401B00009088FF1F80B400AF0F4B104AC3F85C210D4B0F4AC3F860210B4B0E4AC3F86421094B0D4AC3F86821074B0C4AC3F86C21054B0B4AC3F87021034B0A4AC3F8742103
:401B4000BD4680BC704700BF3C5E00205C6000209088FF1FA087FF1F4489FF1F8089FF1FBC89FF1FF889FF1F80B400AF0F4B104AC3F88C210D4B0F4AC3F890210B4B0E4AC1
:401B8000C3F89421094B0D4AC3F89821074B0B4AC3F89C21054B0A4AC3F8A021034B094AC3F8A421BD4680BC704700BF3C5E00205C600020206000209088FF1FA087FF1FD0
:401BC0004489FF1F8089FF1F80B584B000AF03463960FB803B68002B01D1264B3B60264AFB881380254A3B681360254BBB600023FB8108E0BB68234A1A60BB680433BB6016
:401C0000FB890133FB81FB89692BF3D9FFF7A2FCFFF7E2FCFFF700FDFFF732FDFFF740FDFFF74AFDFFF76AFDFFF77AFDFFF796FDFFF7B6FDFFF7F2FDFFF716FEFFF722FE9B
:401C4000FFF74CFEFFF776FEFFF7A0FEFFF7BEFEFFF7D6FEFFF7F0FEFFF726FFFFF73EFFFFF750FFFFF780FF054B18461037BD4680BD00BF3881FF1F0062002004620020EB
:401C80003C5E0020E45F002080B5C4B000AF3B4618464FF487731A46002127F099FB3B4601221A703B4628229A743B463A2283F824203B46552283F825203B46012283F8ED
:401CC00035203B46362283F836203B46482283F837203B46012283F847203B46262283F848203B46012283F849203B46012283F859203B46112283F85A203B46292283F8E6
:401D00006C203B46362283F87E203B46012283F88F203B462A2283F890203B46012283F893203B463F2283F894203B46042283F8A1203B462B2283F8A2203B46EF2283F881
:401D4000A6203B46042283F8B3203B46332283F8B4203B46012283F8B7203B46402283F8B8203B46062283F8C5203B46372283F8C6203B46022283F8D7203B46132283F8CB
:401D8000D8203B46012283F8E9203B46202283F8EA203B46FF2283F80D2100F0C9F80023A7F80E3139E0B7F80E2139461346DB0013445B000B441B789BB21846FEF762F985
:401DC000B7F80E2139461346DB0013445B000B44581CB7F80E2139461346DB0013445B000B4411331B7803F01F031946FEF756F9B7F80E2139461346DB0013445B000B442A
:401E000011331B785BB2002B02DA6420FEF744FCB7F80E310133A7F80E31B7F80E2139461346DB0013445B000B4411331B78FF2BB9D107F58877BD4680BD00BF80B58CB076
:401E400000AFF860B9607A603B60FB6823EAE373BB62BB6823EAE3737B627B6840F23F129342A8BF13463B623B68EF2BA8BFEF23FB612A20FEF706F9BB6A1B12DBB23B7590
:401E8000BB6ADBB27B753B6A1B12DBB2BB753B6ADBB2FB7507F1140304211846FEF7FEF82B20FEF7EFF87B6A1B12DBB23B757B6ADBB27B75FB691B12DBB2BB75FB69DBB2BB
:401EC000FB7507F1140304211846FEF7E7F82C20FEF7D8F87B689AB2FB689BB2D31A9BB201337B833B6A9AB2BB6A9BB2D31A9BB201333B837B6AFB850FE03B8B1946B86B85
:401F0000FEF79EFB7B8B5B00BA6B1344BB63B7F92E309BB201339BB2FB85B7F92E20FB699A42EADD22F07AFD3037BD4680BD00BF80B500AF0120FEF793FB0120FEF7ACFB83
:401F40000020FEF78DFB0A20FEF7A6FB0120FEF787FB7820FEF7A0FB80BD00BF90B589B000AF786039609F4B46229F49002016F039FF3968786811F03DF9F861FB69002B72
:401F800006D19A4B4A229849032016F02BFFFEE7FB69002B01D1002320E1954B1B68002B05D1F86923F090FC0246914B1A60914B1B68002B09D1F86911F0E4FB034618460D
:401FC00023F082FC02468B4B1A608B4B1B68002B05D1F86923F084FC0246874B1A605021F86923F0C5F9B861BB69002B06D17F4B53227D49032016F0F5FEFEE7BB69002B9F
:4020000001D10023EAE0BB6900229A63BB6900221A64BA6992F84C306FF3000382F84C30BB690022A3F84E20BB690022A3F84620BB690022A3F84820BB690022A3F8442032
:40204000BB69C822A3F84A20BB696C4ADA63BA6992F84C306FF3410382F84C306849F86923F06EF9F86911F08DFB03466549184623F066F96449F86923F06EF93B68002BDE
:402080005CD1F86911F07EFB78610021786923F0E5F801220121F86903F0E4FA0021F86916F0BAF80246BB699A6300220121F86902F0CCFC5549F86911F058FA0221F869FE
:4020C00011F074FA0421F86911F070FA504A0121F86911F007FB4F49F86900F0A3F8FFF7BBF938613B69002B18D03B69D3F848311A460021F86900F031F93B69D3F84C3112
:402100001A460121F86900F029F93B69D3F850311A460221F86900F021F958E03E4A0021F86900F01BF9354A0121F86900F016F93A4A0221F86900F011F948E0386823F0A8
:40214000DBFBF860FB689B6B1946F86916F064F80246BB699A63BB699C6BFB689B6B184616F0E6FA03461946204616F075F9FB68B3F84620BB69A3F84620FB68B3F94E20CD
:40218000BB69A3F84E20FB681A6CBB691A64FB68B3F84420BB69A3F84420FB68DA6BBB69DA63FB68B3F84A20BB69A3F84A20FB6893F84C30C3F34003D9B2BA6992F84C3011
:4021C00061F3410382F84C30F86922F0CDFF144B93220549012016F005FEFB6918462437BD4690BD30E1020050E102006CE10200145E0020185E00201C5E00209088FF1F8C
:4022000099280000E52B0000AD240000692C00001888FF1F7CE10200CC88FF1F0889FF1F98E1020080B584B000AF78603960786823F062FBB860BB680022A3F84420002356
:40224000FB8110E0FB893A6813441B780A2B07D1BB68B3F8443001339AB2BB68A3F84420FB890133FB81FB893A6813441B78002BE8D1BB68B3F8443001339AB2BB68A3F849
:402280004420BB689B6B3968184616F0E5F80021786800F07FFD1037BD4680BD80B584B000AF78600B467B80786823F025FBF860FB68B3F846307A889A421ED0FB68B3F8B6
:4022C00044307A889A4205D3FB68B3F84430013B9BB200E07B88FA68A2F84630FB6893F84C3003F00103DBB2002B03D1786800F0EFFD02E0786824F0F3FB1037BD4680BD60
:4023000080B584B000AF78600B467B80786823F0F3FAF860FB68B3F94E30B7F902209A4207D0FB687A88A3F84E200021786800F031FD1037BD4680BD80B584B000AF786013
:402340000B467B80786823F0D7FAF860FB687A88A3F84A201037BD4680BD00BF80B586B000AFF8600B467A60FB72F86823F0C4FA7861FB7A012B0FD0022B07D0002B15D19C
:402380007A680021F86811F0ADF90FE07A680221F86811F0A7F909E07B697A68DA63F86811F0F0F93861386922F0F8FF1837BD4680BD00BF80B584B000AF7860786823F074
:4023C0009BFAF860FB68B3F8463018461037BD4680BD00BF80B584B000AF78600B46FB70786823F089FAF860FB78012B0FD0022B07D0002B0ED10021786811F001FA03467C
:4024000009E00221786811F0FBF9034603E0FB68DB6B00E0002318461037BD4680BD00BF80B584B000AF78600B46FB70786823F063FAF860FA6892F84C3043F0010382F8D2
:402440004C30786811F09EF903460121184622F005FFFB781946786800F09CFC1037BD4680BD00BF80B584B000AF7860786823F043FAF860FB689B6B002B01D1042310E014
:40248000FB689B6B184616F06FF90346FB72FB7A012B03D0022B03D0002302E0042300E0082318461037BD4680BD00BFB0B5B2B004AFF860B9601346FB71FB79022B07D1B9
:4024C000A84B1B68FA79B968F86898470346DAE1FB79002B40F08480A24B1B68FA79B968F8689847F86823F007FAC7F8B400F86823F0B4F9034687F8B330D7F8B43093F889
:402500004C3003F00103DBB2002B00F0BB810021F868FFF75FFFC7F8AC00D7F8AC305B6AC7F8A830D7F8A80003F090F80346A7F8A630D7F8B4309B6BB3F91230A7F8523085
:40254000B7F952309AB2D7F8B430B3F84630B7F9A610D7F8AC00B0F92A00014489B201FB03F39BB213449BB21BB2A7F85230B7F952309AB2D7F8AC30B3F92A30D90F0B449E
:402580005B101BB29BB2D31A9BB21BB2A7F85230B7F952309AB2B7F8A63013449AB2D7F8AC30B3F92A309BB213449BB2013B9BB21BB2A7F85630FB68B3F91030A7F850303D
:4025C000FB68B3F91430A7F85430D7F8B430DA6B97F8B33007F15000B9681CF047FB51E1FB79012B40F04E81F86823F085F9C7F8A000F86823F032F9034687F89F30D7F81F
:40260000A03093F84C3003F00103DBB2002B00F0AB800021F868FFF7DDFEC7F89800D7F898305B6AC7F89430D7F8940003F00EF80346A7F89230D7F8A0309B6BB3F91230D8
:40264000A7F86230B7F962309AB2D7F8A030B3F84630B7F99210D7F89800B0F92A00014489B201FB03F39BB213449BB21BB2A7F86230B7F962309AB2D7F89830B3F92A30C3
:40268000D90F0B445B101BB29BB2D31A9BB21BB2A7F86230B7F962309AB2B7F8923013449AB2D7F89830B3F92A309BB213449BB2013B9BB21BB2A7F86630FB68B3F910301C
:4026C000A7F86030FB68B3F91430A7F8643007F1600207F15803B968184617F0A9FD034687F8913097F89130002B00F0C5800121F868FFF76FFEC7F88C0007F11403D7F805
:402700009810184621F07EFED7F88C301B8CBB86D7F88C3093F82C3087F84030F868FFF7A1FE034687F88B30D7F8A0309B6B03F11004D7F8A0309B6B184615F0F9FF0546C2
:4027400097F89F0007F1140207F158010023029397F88B30019300950346204620F05EFC8AE000BF1C5E0020D7F8A03093F84C3003F00203DBB2002B7ED00021F868FFF7AA
:4027800029FEC7F88400D7F884305B6AC7F880300021F868FFF71EFEF867D7F8800002F055FF0346A7F87A3007F11403D7F88410184621F027FEFB6F1B8CBB86FB6F93F892
:4027C0002C3087F84030FB68B3F914309AB2D7F88430B3F918309BB2D31A9BB21BB2A7F87430B7F974309CB2FB6F5A6A0023009300230321264814F097FD03469BB2E31A7B
:402800009BB21BB2A7F87030FB68B3F912309AB2D7F88430B3F92A309BB213449BB21BB2A7F87230B7F972309AB2B7F87A3013449BB21BB2A7F8763007F1700207F16803A0
:40284000B968184617F0F4FC034687F8793097F87930002B10D097F89F4007F1140207F1680107F170000023029300230193084B0093234620F0D2FB064B1B68FA79B968E6
:40288000F868984701231846B837BD46B0BD00BFB0E102001C5E002080B58CB000AFF8600B467A60FB72BA4B1B68F97A7A68F8689847034687F82E3097F82E30012B02D0CF
:4028C00097F82E3088E1F86823F016F8B862FB7A032B04D10021F86800F05CFA7AE1FB7A002B03D1BB6A00229A6373E1FB7A102B5AD1F86823F00CF87862786A25F038FAEC
:40290000034687F8233025F075FA0346184625F07BFA034687F8223097F82230042B28D197F82330002B12D0BA6A92F84C3043F0010382F84C30BB6AB3F84620BB6AA3F868
:4029400048200121F86800F025FA00BF42E1BA6A92F84C306FF3000382F84C30BB6AB3F84820BB6AA3F846200121F86800F012FA27E1BB6A93F84C3003F00103DBB2002B38
:4029800040F01F81BA6A92F84C3043F0010382F84C30BB6AB3F84620BB6AA3F848200121F86800F0F7F90CE1FB7A112B1AD1BB6A93F84C3003F00103DBB2002B00F0038158
:4029C000BA6A92F84C306FF3000382F84C30BB6AB3F84820BB6AA3F846200121F86800F0D9F9F7E0FB7A122B40F0C0807B681B7887F8213097F82130132B03D097F82130A0
:402A0000122B2BD1BB6A93F84C3003F00103DBB2002B0AD1BA6A92F84C3043F0010382F84C300121F86800F0B5F9BB6AB3F846300133BA6AB2F84420934280F2C680BB6AD2
:402A4000B3F8463001339AB2BB6AA3F84620F86800F03EFAF86824F043F8BAE097F82130142B03D097F82130112B27D1BB6A93F84C3003F00103DBB2002B0AD1BA6A92F854
:402A80004C3043F0010382F84C300121F86800F081F9BB6AB3F84630002B00F09880BB6AB3F84630013B9AB2BB6AA3F84620F86800F00EFAF86824F013F88AE097F82130F3
:402AC0000A2B3BD1BB6A93F84C3003F00103DBB2002B25D0BB6AB3F84620BB6AA3F84820BA6A92F84C306FF3000382F84C30BB6A1B6C002B03D0BB6A1B6CF8689847F868ED
:402B000022F006FFF861F86925F032F90346FB76FB7E002B0CD00021F86925F079F808E0BA6A92F84C3043F0010382F84C3000E000BF0121F86800F02DF94AE097F82130C2
:402B40001B2B46D1BB6A93F84C3003F00103DBB2002B3ED0BA6A92F84C306FF3000382F84C300121F86800F015F932E0FB7A142B05D17B687B617B6901221A702AE0FB7A9F
:402B8000062B27D17B683B61002387F82F300DE0145E002097F82F203B6953F82230002B08D097F82F30013387F82F3097F82F30062BEFD997F82F203B69094943F82210A3
:402BC00008E000BF06E000BF04E000BF02E000BF00E000BF97F82E3018463037BD4680BDB4E1020080B588B000AFF8600B467A60FB721C4B1B68F97A7A68F868984703464A
:402C0000FB77FB7F012B01D0FB7F26E0F86822F0C3FCB861FB7A042B12D10021B869FFF7D9FB7861FB68B3F934207B69B3F918309A4210DA7B69B3F91820FB689A860BE03E
:402C4000FB7A002B08D1B86922F056FE38613B6900229A6300E000BFFB7F18462037BD4680BD00BF185E002080B58CB000AF7860786822F041FE78627B6A93F84C3003F0B3
:402C80000103DBB2002B0FD17A6A92F84C3043F0010382F84C30786810F074FD03460121184622F0DBFA69E07A6A92F84C306FF3000382F84C30786810F064FD0346002127
:402CC000184622F0CBFA25F095F8386207F110031946386A25F0E6F8B7F910309AB27B6A9B6BB3F910309BB2D31A9BB21BB23B82B7F912309AB27B6A9B6BB3F912309BB2DC
:402D0000D31A9BB21BB27B827B6A9B6B07F110021146184615F0A8FE0346FB830023FB857B6A9B6B184615F003FDB8610023FB600023BB620023BB6210E0154B1B6807F1A0
:402D40000C021146B869984778617B690A2B02D1FB8D0133FB85BB6A0133BB62FA8BBB6A9A42EAD87B6AFA8DA3F846207B6A1B6C002B03D07B6A1B6C78689847012178682B
:402D800000F008F8012318463037BD4680BD00BF4C82FF1F80B592B000AF78600B46FB70786822F0A9FD3864786822F09BFCF8633B6C93F84C3003F00103DBB2002B22D02E
:402DC0003B6CB3F94E30002B13D1786810F0DAFC0346184622F078FC03469AB2FB6BB3F916309BB25B009BB213449BB2A7F8463004E03B6CB3F84E30A7F8463005217868A6
:402E000010F0D4FB1CE0FB6B5B6ABB633B6C9B6B184622F067FC7863B86B02F017FC03467B867B6BB3F92A309BB25B009AB27B8E13449BB2A7F846300421786810F0B6FB59
:402E4000FB7883F00103DBB2002B0DD0B7F946301946786824F058F8786800F039F81949786819F0AFF82AE07B68FB60786822F02BFC0346FB61B7F946303B62114B3B6156
:402E8000114BBB61114B7B610023FB843B6CB3F84A30BB8497F82C306FF3000387F82C3000233B8597F82C306FF3410387F82C3000237B8507F10C03184619F02BF8483708
:402EC000BD4680BD096F02008DC00100D12E000080B58AB000AF7860786822F00DFD7862786822F0FFFB38623B6A5B6AFB61F86902F0ACFB03467B837B6A9B6B184622F017
:402F0000F1FB7861786810F03DFC3861786822F0DBFB0346FB817B6AB3F84630B7F91A207969B1F92A100A4492B202FB03F39AB27B6A9B6BB3F912309BB213449AB23B6999
:402F4000B3F912309BB2D31A9BB2BB81B7F90E20B7F91A30D31ADA0F13445B109AB2BB89D31A9BB21BB21946386923F043FF2837BD4680BD80B582B000AF78600B467B806B
:402F8000B7F902301946786812F014FA0837BD4680BD00BF80B582B000AF786039603968786822F0CFF80837BD4680BD80B582B000AF7860786812F04DFA03461846083745
:402FC000BD4680BD80B582B000AF7860786812F051FA034618460837BD4680BD80B582B000AF7860786822F07DFB034618460837BD4680BD80B588B000AF786039605A4BA0
:4030000040225A49002015F0EDFE3968786812F029F9B861BB69002B06D1554B44225349032015F0DFFEFEE7BB69002B01D1002396E01821B86922F09BF978617B69002B69
:4030400006D14B4B49224949032015F0CBFEFEE77B69002B01D1002382E07B6900221A757B690022DA607B6900221A617B6906225A75404B1B68002B05D1B86922F024FC17
:4030800002463C4B1A603C4B1B68002B05D1B86922F026FC0246384B1A603849B86922F04FF93749B86922F057F93B68002B25D106231522DC21B86900F00AF900220121AA
:4030C000B86900F063F85021B869FFF753FFC822C821B86923F0A2FEFEF7BEF938613B69002B06D03B699B6E1946B869FFF752FF2FE02449B869FFF74DFF2AE0386822F0EA
:40310000FBFBF860FB68197DFB681B691A46B86900F03CF80023FB770FE07B69DA68FB7F5B001344FA68D168FA7F52000A44B2F900201A80FB7F0133FB777B691B7DFA7FB8
:403140009A42EAD3FB685A7D7B695A75B86922F00BF80D4B75220549012015F043FEBB6918462037BD4680BDC0E10200D8E102006CE10200245E0020205E0020E1330000D5
:40318000113300000889FF1FF0E1020080B588B000AFF8600B467A60FB72F86822F0ACFBB861BB691B7DFA7A9A423FD0BB69DB68002B07D0BB69DB68184616F00FF8BB6991
:4031C0000022DA60BB69DA68FB7A5B001946104616F042F80246BB69DA60BB69DB68002B06D1174B8F221749032015F0FBFDFEE7BB69DB68002B1FD0F868FFF7D7FE0346CC
:40320000FB82BB691B7DFB7709E0BB69DA68FB7F5B001344FA8A1A80FB7F0133FB77FA7FFB7A9A42F1D3BB69FA7A1A75BB697A681A61F86823F054FC2037BD4680BD00BFDB
:403240006CE10200D8E1020080B584B000AF78600B46FB7013463B80786822F04DFBF860FB681B7DFA789A422FD2FB68DA68FB785B001344B3F90030B7F900209A4224D062
:403280007868FFF793FE03467B817868FFF79AFE03463B81B7F90020B7F908309A4202DD3B893B8007E0B7F90020B7F90A309A4201DA7B893B80FB68DA68FB785B0013441C
:4032C0003A881A80786823F00BFC1037BD4680BD80B584B000AF7860084611461A4603467B800B467B7013463B707A787B881946786812F08DF8786822F0FEFAF860FB6818
:403300003A785A75786823F0EBFB1037BD4680BD80B598B000AFF860B9601346FB71FB79022B01D1002355E0FB79002B48D1FB685B6AFB65F86822F0D5F9B865F86822F070
:40334000DBFA7865B968F86800F090F87B6D9B78A7F85230214B1B68FA79B968F868984707F11403B96D184621F04CF87B6D5A7D7B6D9A70B7F94A309BB25B009BB21BB23F
:40338000A7F84A30B7F92C309BB25B009BB21BB2BB85FB6807F114025A62104B1B68FA79B968F8689847B7F85230DAB27B6D9A70FB68FA6D5A62B968F86800F085F908E0FC
:4033C000FB79012B05D1054B1B68FA79B968F8689847012318466037BD4680BD205E002080B588B000AFF8600B467A60FB721D4B1B68F97A7A68F86898470346BB77BB7F7A
:40340000012B01D0BB7F29E0F86822F075FAB861FB7A002B08D1BB69DB68184615F0DEFEBB690022DA6018E0FB7A062B15D17B687B610023FB7708E0FA7F7B6953F82230F9
:40344000002B05D0FB7F0133FB77FB7F062BF3D9FA7F7B69044943F82210BB7F18462037BD4680BD245E002000E20200B0B598B004AF78603960786822F03EFAB8647868F2
:4034800022F030F97864786822F0E8F9034687F84330786822F00AF90346DA0F13445B101BB29AB27B6CB3F918309BB219469B00CB1A9BB213449AB27B6CB3F91A309BB2C4
:4034C000D31A9BB2A7F84030786822F0EFF80346DA0F13445B101BB29AB27B68B3F910309BB213449BB2FB87786822F0EDF80346DA0F13445B101BB29AB27B68B3F91230A6
:403500009BB213449BB2BB87786811F0C3FF03467B87BB6C5B7D3B87B7F93A30C3F5B473DA0F13445B109BB25A339BB2FB867868FFF73CFD0346BB867868FFF743FD034665
:403540007B86002387F84F30B2E097F84F30B7F93A2002FB03F23B8F013B92FBF3F39AB2FB8E13449BB23B86B7F93030184615F015FD03461A46B7F9403003FB02F3514AFE
:4035800082FB03121A449213DB17D31AFB85FA8DBB8F13449BB2FB853B8E5A339BB21BB2184615F0FBFC03461A46B7F9403003FB02F3444A82FB03121A449213DB17D31A9A
:4035C000BB85BA8DFB8F13449BB2BB85B7F93220B7F93430D31A97F84F2002FB03F23B8F013B92FBF3F37B857A8DBB8E13449BB27B85B7F92A3007F118021146184615F0A0
:4036000013FC7B6C5C6A7B6CB3F928507B6CB3F92A3007F1180107F10C000022029243F6FF72019200932B46224616F0ADF9BA8DB7F90C30D90F0B445B101BB29BB2D31ADA
:403640009BB21BB23B82FA8DB7F90E30D90F0B445B101BB29BB2D31A9BB21BB27B82B7F910309AB2B7F90C309BB213449BB21BB2BB82B7F912309AB2B7F90E309BB213444B
:403680009BB21BB2FB8297F8432007F11000002302930023019307F11803009313467A6C39681FF0BBFC97F84F30013387F84F3097F84F309BB23A8F9A423FF646AF5037CD
:4036C000BD46B0BD0300018080B5B2B002AF78603960786822F010F9C7F8B4007868FFF77DFCC7F8B000786822F0B8F8034687F8AF30786821F0DAFF0346DA0F13445B10EA
:403700001BB29AB2D7F8B030B3F918309BB2D31A9BB2A7F8AC30786821F0C8FF0346DA0F13445B101BB29AB27B68B3F910309BB213449BB2A7F8AA30786821F0C5FF0346CF
:40374000DA0F13445B101BB29AB27B68B3F912309BB213449BB2A7F8A830786811F09AFE0346A7F8A630B7F8A630C3F5B473DA0F13445B109BB25A339BB2A7F8A43078688C
:40378000FFF714FC0346A7F8A2307868FFF71AFC0346A7F8A03007F15C03D7F8B010184620F030FEB7F8AA30A7F85830B7F8A830A7F85A30002387F8BF301FE1D7F8B4307F
:4037C000DA6897F8BF305B001344B3F900301A46B7F9A230D31AB7F8A62002FB03F35A01B7F9A010B7F9A230CB1A92FBF3F3A7F89E30B7F99E305B111BB29AB2B7F8A430BC
:4038000013449BB2A7F89C30B7F89C3001339BB2A7F89A30B7F99C30184615F0BFFB03461A46B7F9AC3003FB02F39E4A82FB03121A449213DB17D31A9AB2B7F8A8301344CD
:403840009BB21BB2A7F85230B7F89C305A339BB21BB2184615F0A2FB03461A46B7F9AC3003FB02F38F4A82FB03121A449213DB17D31A9AB2B7F8AA3013449BB21BB2A7F891
:403880005030B7F99A30184615F088FB03461A46B7F9AC3003FB02F3824A82FB03121A449213DB17D31A9AB2B7F8A83013449BB21BB2A7F84E30B7F89A305A339BB21BB23F
:4038C000184615F06BFB03461A46B7F9AC3003FB02F3744A82FB03121A449213DB17D31A9AB2B7F8AA3013449BB21BB2A7F84C30B7F89E3003F01F03A7F89830B7F94C301F
:403900001A46B7F95030D31A002BB8BF5B42B7F8982002FB03F35B11A7F8BC30B7F94E301A46B7F95230D31A002BB8BF5B42B7F8982002FB03F35B11A7F8BA30B7F94C2023
:40394000B7F950309A4205DAB7F8BC305B429BB2A7F8BC30B7F94E20B7F952309A4205DAB7F8BA305B429BB2A7F8BA30B7F950309AB2B7F8BC3013449BB21BB2A7F854308A
:40398000B7F952309AB2B7F8BA3013449BB21BB2A7F85630D7F8B4301B69002B12D197F890306FF3040387F89030B7F890306FF34A13A7F8903097F8913043F0F80387F894
:4039C000913009E0D7F8B4301A6997F8BF305B0013441B88A7F8903007F15C0207F1540107F1580097F8AF30009313463A681CF0E7FA97F8BF30013387F8BF30D7F8B43006
:403A00001B7D97F8BF209A42FFF4D8AE07F110032549184620F0F6FCD7F8B0305B897B82D7F8B0305B89BB8243F6FF73FB82B7F8AA20D7F8B030B3F916309BB2D31A9BB229
:403A40001BB23B81B7F8A820D7F8B030B3F916309BB2D31A9BB21BB27B81D7F8B030B3F916309AB2B7F8AA3013449BB21BB2BB81D7F8B030B3F916309AB2B7F8A830134467
:403A80009BB21BB2FB81786821F0E8FE034607F1100207F1080039681BF0E8F8C037BD4680BD00BF030001805488FF1F80B582B000AF7860786821F015FE0346184608376E
:403AC000BD4680BD80B586B000AFF860B9601346FB80F86821F010FF7861BB681A68BB68DB885B001344FA881A80BB68DB8801337A69528A93FBF2F102FB01F29B1A9AB2FA
:403B0000BB68DA80F86800F003F81837BD4680BD80B582B000AF7860786822F0E1FF0837BD4680BDB0B586B000AFF860B9601346FB71FB79022B07D12D4B1B68FA79B96867
:403B4000F868984703464FE0FB79002B4BD1FB6803F11004F86821F0C5FD0546F86821F07DFE03462A46B96820461BF07FF8F86821F0C2FE7861B968F86800F091F87B6954
:403B80001B7DC3F30303DBB203F00103002B03D0B968F86800F0A4F97B691B7DC3F30303DBB203F00203002B03D0B968F86800F0B5FB7B691B7DC3F30303DBB203F0040386
:403BC000002B03D0B968F86800F098FA7B691B7DC3F30303DBB203F00803002B03D0B968F86800F0B3FC012318461837BD46B0BD085E002080B588B000AFF8600B467A607D
:403C0000FB72254B1B68F97A7A68F86898470346BB76BB7E012B01D0BB7E39E0FB7A002B1CD1F86821F068FE78617B69184615F033F8F8610AE0FB691B68184615F0CEFA8A
:403C40007B69F969184615F04BF8F861FB69002BF1D17B69184617F03FF818E0FB7A062B15D17B683B610023FB7608E0FA7E3B6953F82230002B05D0FB7E0133FB76FB7E5F
:403C8000062BF3D9FA7E3B69044943F82210BB7E18462037BD4680BD0C5E002034E2020080B58CB002AF78603960786821F024FE3862786821F016FDF861786821F0CEFD08
:403CC0000346FB76786821F0F1FC03463B83786821F0FAFC0346FB827B681B8ABB827B685B8A7B823B6A1B7C002B78D0FB69B3F90C30002B07D0012387F825303B6A1B7CBD
:403D000087F8263007E0002387F825303B6A1B7C013387F82630BB8ABB813A8BBB8A13449BB21BB23B8197F8253087F8273050E0B7F9163097F8272002FB03F23B6A1B7CEF
:403D4000013392FBF3F31BB2FB81B7F90E309AB27B8A13449BB21BB2FB8197F8272097F825309A420ED1B7F90E309AB2FB69B3F936305B101BB29BB213449BB201339BB258
:403D80001BB2FB8197F8272097F826309A420ED1B7F90E309AB2FB69B3F936305B101BB29BB2D31A9BB2013B9BB21BB2FB81B7F90E307B8107F1080107F10C00FB7E009308
:403DC000FB693A681CF0FCF897F82730013387F8273097F8272097F826309A42A8D93B6A5B7C002B78D0FB69B3F90C30002B07D0012387F825303B6A5B7C87F8263007E048
:403E0000002387F825303B6A5B7C013387F826307B8AFB81FA8A7B8A13449BB21BB27B8197F8253087F8273050E0B7F9183097F8272002FB03F23B6A5B7C013392FBF3F3C2
:403E40001BB2BB81B7F90C309AB2BB8A13449BB21BB2BB8197F8272097F825309A420ED1B7F90C309AB2FB69B3F936305B101BB29BB213449BB201339BB21BB2BB8197F8AA
:403E8000272097F826309A420ED1B7F90C309AB2FB69B3F936305B101BB29BB2D31A9BB2013B9BB21BB2BB81B7F90C303B8107F1080107F10C00FB7E0093FB693A681CF051
:403EC0007FF897F82730013387F8273097F8272097F826309A42A8D92837BD4680BD00BF80B59EB002AF78603960786821F004FD7866786821F0DAFB0346A7F86230786850
:403F000021F0E2FB0346A7F860307B681B8AA7F85E307B685B8AA7F85C30786821F09EFC034687F85B3007F10C037349184620F069FA7B6E5B7E87F844307B6EB3F9163071
:403F4000A7F842307B6E184614F0B8FEB866CCE0BB6E9B88A7F84030B7F85E30A7F84C30B7F85E30A7F84830BB6EDB88A7F86C30BB6E1A68B7F96C305B001344B3F9003012
:403F80001A467B6EB3F90C30D31AB7F9602002FB03F37B657B6EB3F90E301A467B6EB3F90C30D31A7A6D92FBF3F37B65B7F860207B6D9BB2D31A9AB2B7F85C3013449BB239
:403FC0001BB2A7F84A300123A7F86E3080E0B7F94830A7F84C30B7F94A30A7F84E30B7F96230B7F86E2002FB03F27B6E5B8A013B92FBF3F39AB2B7F85E3013449BB21BB2A8
:40400000A7F84830BB6EDB881A46B7F86E3013447A6E528A93FBF2F102FB01F29B1AA7F85230BB6E1A68B7F952305B001344B3F900301A467B6EB3F90C30D31AB7F9602025
:4040400002FB03F37B657B6EB3F90E301A467B6EB3F90C30D31A7A6D92FBF3F37B65B7F860207B6D9BB2D31A9AB2B7F85C3013449BB21BB2A7F84A30BB6E1A68B7F96C30E9
:404080005B001344B3F9003013F5804F17D0BB6E1A68B7F952305B001344B3F9003013F5804F0CD007F10C0207F1480107F14C0097F85B30009313463A681BF081FFB7F829
:4040C0005230A7F86C30B7F86E300133A7F86E307B6E5B8AB7F86E209A42FFF478AF7B6EB96E184614F018FEB866BB6E002B7FF42FAF7037BD4680BD5488FF1F80B59CB097
:4041000000AF78603960786821F0F6FB3866786821F0CCFA0346A7F85E30786821F0D4FA0346A7F85C307B681B8AA7F85A307B685B8AA7F85830002387F8673007F10803A3
:404140007549184620F05EF90023BB8297F824306FF3000387F8243043F6FF73FB813B6E5B7E3B743B6EB3F91630FB813B6E184614F0A4FDB866C7E0BB6E9B887B8197F88A
:404180004C306FF3040387F84C30B7F84C306FF34A13A7F84C3097F84D306FF3C70387F84D303B6E9A7EBB6E9988B7F84C0001F0BFFEB8810023A7F86E3093E0B7F95E30E8
:4041C000B7F86E2002FB03F23B6E5B8A013B92FBF3F39AB2B7F85A3013449BB21BB2A7F84430B7F944309AB2B7F90E309BB213449BB21BB2A7F84830B7F944309AB2B7F9F7
:404200000E309BB2D31A9BB21BB2A7F84430BB6EDB881A46B7F86E3013443A6E528A93FBF2F102FB01F29B1AA7F85630BB6E1A68B7F956305B001344B3F900301A463B6E12
:40424000B3F90C30D31AB7F95C2002FB03F33B653B6EB3F90E301A463B6EB3F90C30D31A3A6D92FBF3F33B65B7F85C203B6D9BB2D31A9AB2B7F8583013449BB21BB2A7F8DF
:404280004630B7F946309AB2B7F90E309BB213449BB21BB2A7F84A30B7F946309AB2B7F90E309BB2D31A9BB21BB2A7F84630BB6E1A68B7F956305B001344B3F9003013F511
:4042C000804F0AD0786821F0C9FA034607F1080207F1440039681AF0C9FCB7F86E300133A7F86E303B6E5B8AB7F86E209A42FFF465AF97F86730013387F867303B6EB96EBE
:40430000184614F009FDB866BB6E002B7FF434AF7037BD4680BD00BF5488FF1F90B59FB000AF78603960786821F0E6FAB866786821F0BCF90346A7F86630786821F0C4F938
:404340000346A7F86430B7F96620BB6E1B7E0133B96E498A01FB03F392FBF3F3A7F86230B7F96230DA0F13445B10A7F8603007F108037549184620F045F80023BB8297F88E
:4043800024306FF3000387F824300023FB81BB6E5B7E3B747B68B3F91630A7F852300023A7F87630C6E0B7F96630B7F8762002FB03F3BA6E528A93FBF2F3A7F86E307B6808
:4043C000B3F910309AB2B7F8603013449AB2B7F86E3013449BB2A7F86E30BB6E184614F06DFC38679DE03B6F9B887B8197F854306FF3040387F85430B7F854306FF34A132B
:40440000A7F8543097F855306FF3C70387F85530BB6E9A7E3B6F9988B7F8540001F088FDB881B7F86E30A7F84C30B7F94C309AB2B7F8623013449BB21BB2A7F85030B7F8F7
:404440006E20B7F8623013449BB2A7F86E303B6FDB881A46B7F876301344BA6E528A93FBF2F102FB01F29B1AA7F85E303B6F1A68B7F95E305B001344B3F900301A46BB6EAB
:40448000B3F90C30D31AB7F9642002FB03F3BB65BB6EB3F90E301A46BB6EB3F90C30D31ABA6D92FBF3F3BB65B7F86420BB6D9BB2D31A9AB27B68B3F912309BB213449BB212
:4044C0001BB2A7F84E3007F14C0207F144033968184615F0ADFE034687F8573097F85730002B18D03B6F1A68B7F95E305B001344B3F9003013F5804F0DD07B6803F110048F
:40450000786821F0ABF9034607F1080207F1440120461AF0ABFBBB6E396F184614F0FCFB38673B6F002B7FF45EAFB7F876300133A7F87630BB6E5B8AB7F876209A42FFF43A
:4045400032AF7C37BD4690BD5488FF1F80B59CB002AF78603960786821F0CEF9F865786821F0A4F80346A7F85A30786821F0ACF80346A7F858307B681B8AA7F856307B6811
:404580005B8AA7F85430786821F068F9034687F8533007F10803A34918461FF033FFFB6D5B7E87F84030FB6DB3F91630FB87FB6D184614F083FB38662CE13B6E9B88BB87BB
:4045C000B7F85630A7F84830B7F85630A7F844303B6E1B68B3F900301A46FB6DB3F90C30D31AB7F9582002FB03F3FB64FB6DB3F90E301A46FB6DB3F90C30D31AFA6C92FB26
:40460000F3F3FB644FF44043A7F84A30B7F85820FB6C9BB2D31A9AB2B7F8543013449BB21BB2A7F84630FB6D5B8A1A46B7F95A309A4270D10023A7F8663065E03B6E1A68BD
:40464000B7F866305B001344B3F900301A46FB6DB3F90C30D31AB7F9582002FB03F3FB64FB6DB3F90E301A46FB6DB3F90C30D31AFA6C92FBF3F3FB64B7F85820FB6C9BB24E
:40468000D31A9AB2B7F8543013449BB21BB2A7F84630B7F94A20B7F946309A4207D1B7F944309BB201339BB21BB2A7F8443007F1080207F1440107F1480097F8533000931E
:4046C00013463A681BF07CFCB7F95A30B7F8662002FB03F2FB6D5B8A013B92FBF3F39AB2B7F8563013449BB21BB2A7F84430B7F94430A7F84830B7F94630A7F84A30B7F8B1
:4047000066300133A7F86630FB6D5B8AB7F866209A4293D378E00123A7F866306EE0B7F94430A7F84830B7F94630A7F84A30B7F95A30B7F8662002FB03F2FB6D5B8A013B53
:4047400092FBF3F39AB2B7F8563013449BB21BB2A7F844303B6E1A68B7F866305B001344B3F900301A46FB6DB3F90C30D31AB7F9582002FB03F3FB64FB6DB3F90E301A46FA
:40478000FB6DB3F90C30D31AFA6C92FBF3F3FB64B7F85820FB6C9BB2D31A9AB2B7F8543013449BB21BB2A7F846303B6E1A68B7F8663003F10043013B5B001344B3F9003046
:4047C000002B16DB3B6E1A68B7F866305B001344B3F90030002B0CDB07F1080207F1440107F1480097F85330009313463A681BF0E7FBB7F866300133A7F86630FB6D5B8A86
:40480000B7F866209A428AD3FB6D396E184614F083FA38663B6E002B7FF4CFAE6837BD4680BD00BF5488FF1F80B582B000AF7860396008223968786824F0D2FD0837BD46CB
:4048400080BD00BF80B483B000AF78607B68B3F904309AB27B68B3F900309BB2D31A9BB201339BB21BB218460C37BD4680BC704780B483B000AF78607B68B3F906309AB215
:404880007B68B3F902309BB2D31A9BB201339BB21BB218460C37BD4680BC704780B582B000AF786039603968786820F04BFC0837BD4680BD80B586B000AF78603960494BCE
:4048C00043224949002014F08DFA3968786821F039FE78617B69002B06D1444B47224249032014F07FFAFEE77B69002B01D1002374E03F4B1B68002B05D1786920F0E4FF4C
:4049000002463B4B1A600121786920F031FD786920F0F2FF38613B69002B01D100235DE03B69002B06D1314B50222F49032014F059FAFEE73A6913786FF3041313703A693A
:4049400013786FF3451313703A6913786FF3030313702849786920F0F3FC3B68002B11D1FCF77AFDF860FB68002B06D0FB689B6819467869FFF792FF29E01F497869FFF7BA
:404980008DFF24E0386820F0B7FFB860BB681B78C3F30013D9B23A69137861F304131370BB681B78C3F34013D9B23A69137861F345131370BB681B78C3F30303D9B23A697C
:4049C000137861F303031370786920F0CDFB0B4B6C220549012014F005FA7B6918461837BD4680BD40E202005CE202000CE20200105E0020254B0000CC88FF1F74E2020053
:404A000080B584B000AF78600B46FB70786820F073FFF860FB681B78C3F30303DBB21A46FB789A420ED0FB7803F00F03D9B2FA68137861F3030313707B689B69002201214C
:404A4000786898471037BD4680BD00BF80B584B000AF78600B46FB701346BB70786822F03FF8786820F048FFF860FB681B78C3F30013DBB2FA789A4207D1FB681B78C3F32B
:404A80004013DBB2BA789A4221D0FB7883F00103DBB2002B01D0002100E00121FA68137861F304131370BB7883F00103DBB2002B01D0002100E00121FA68137861F34513B7
:404AC00013707B689B6900220121786898471037BD4680BD80B584B000AF7860786820F00BFFF860FB681B78C3F30303DBB218461037BD4680BD00BF80B584B000AF7860AD
:404B0000786820F0F9FEF860FB681B7803F01003DBB2002B14BF01230023DBB218461037BD4680BD90B587B000AFF8600B467A60FB72304B1B68F97A7A68F8689847034600
:404B4000BB75BB7D012B01D0BB7D4FE0FB7A032B06D1F86800F052F8F86800F077FC44E0FB7A012B06D1F86800F048F8F86800F06DFC3AE0FB7A022B1CD1F86820F096FD01
:404B800003461C467868FFF75DFE03469C420AD1F86820F099FD03461C467868FFF768FE03469C4220D0F86800F028F8F86800F04DFC1AE0FB7A062B17D17B683B610023E0
:404BC000FB7508E0FA7D3B6953F82230002B05D0FB7D0133FB75FB7D062BF3D9FA7D3B69054943F8221000E000BFBB7D18461C37BD4690BD105E002088E2020080B584B003
:404C000000AF78607868FFF765FF0346FB730021786820F0CDFC0346002B30D0FB7B002B2DD0FB7B012B03D1786800F017F926E0FB7B022B05D0FB7B032B02D0FB7B042B21
:404C400003D1786800F01EF819E0FB7B052B05D0FB7B062B02D0FB7B072B03D1786800F085F80CE0FB7B082B03D1786800F096F905E0FB7B092B02D1786800F025FB103763
:404C8000BD4680BD80B588B002AF78607868FFF721FF03467B73786820F024FDB8607B7B032B09D0042B0CD0022B14D1BB681B8B3B820123FB7412E000233B820223FB74CF
:404CC0000DE0BB68B3F918309BB25B429BB23B820323FB7403E000233B820123FB740121786820F003FBBB68DB8AFB817B680433184613F0E3FF78612EE0786920F04AFD41
:404D00000346002B20D10421786920F0C7FD0346002B19D1B7F91010FA7CB7F90E3000930B467968786922F003F9786920F0CCFC03461A46BB68B3F91A3013449AB2FB894C
:404D400013449BB2FB8100E000BF7B6804337969184613F0E1FF78617B69002BCDD10121786820F0D7FA1837BD4680BD80B588B002AF78607868FFF7ADFE03467B737868B1
:404D800020F0B0FCB860BB68DB8A3B827B7B062B09D0072B0CD0052B14D1BB68DB8A3B820123FB7412E000233B820723FB740DE0BB68B3F916309BB25B429BB23B82042357
:404DC000FB7403E000233B820123FB740121786820F08CFABB681B8BFB817B680433184613F06CFF78612EE0786920F0D3FC0346002B20D10421786920F050FD0346002B48
:404E000019D1B7F90E10FA7CB7F9103000930B467968786922F08CF8786920F047FC03461A46BB68B3F91A3013449AB2FB8913449BB2FB8100E000BF7B68043379691846E2
:404E400013F06AFF78617B69002BCDD10121786820F060FA1837BD4680BD00BF80B588B002AF7860786820F03DFCB86000233B610023FB817B680433184613F00DFF786191
:404E800026E0786920F086FC0346002B18D10421786920F003FD0346002B11D1786920F013FC03461A46BB68B3F91A3013449AB2FB8913449BB2FB813B6901333B6100E053
:404EC00000BF7B6804337969184613F009FF78617B69002BD5D13B69002B5BD0FA89BB68B3F91A309BB2D31A9BB2FB810121786820F0FCF9B7F90E30DA0F13445B101BB2FA
:404F00009BB25B429BB2BB817B680433184613F0D5FE786137E0786920F03CFC0346002B29D10421786920F0B9FC0346002B22D1786920F0C9FB0346DA0F13445B101BB281
:404F40009AB2BB8913449BB21BB20093002300227968786921F0ECFF786920F0B5FB03461A46BB68B3F91A3013449AB2BB8913449BB2BB8100E000BF7B6804337969184677
:404F800013F0CAFE78617B69002BC4D10121786820F0C0F91837BD4680BD00BFB0B590B002AF7860786820F09DFBB861786820F07DFB0346FB82BB69DB8A7B857B680433F0
:404FC000184613F07BFE78637B6B002B00F077810121786820F08AF97B6B3B6367E100233B85BB69B3F918309BB25B009BB2FB8400233B62386B20F0CDFB034683F0010338
:40500000DBB2002B4BD00421386B20F047FC034683F00103DBB2002B41D0B7F92640386B20F044FB0346E218B7F916309A420DDD3B6B002B43D03B6A002B40D07B68043314
:40504000396B184613F04CFE386339E0386B20F02DFB03461A46BB69B3F91A3013449AB2FB8C13449BB2FB84386B20F02DFB03461A46B7F92830934204DC386B20F024FB2F
:40508000034601E0B7F928303B853B6A01333B620821386B20F002FC0346002B10D17B680433396B184613F037FE38633B6A002B01D13B6B7B633B6B002B9BD100E000BF68
:4050C0003B6A002B12D13B6B002B00F0D880B7F92A300093002302227968386B21F028FF386B20F0F1FA03463B85C9E03B6A012B09D1B7F92A300093002302227968786BA1
:4051000021F016FFBCE03B6A022B53D17B6B3B617B680433796B184613F0FEFDF860386920F0C4FA03469CB2F86820F0BFFA03469BB223449BB2FB84B7F91620B7F926309F
:40514000D31A604A82FB0312DB17D31A7B81B7F92840386920F0B8FA0346E31ADA0F13445B109AB27B8D13449BB21BB2B7F90A200093134601227968386921F0D9FE7B89A3
:405180005B429BB21DB2B7F92840F86820F09CFA0346E31ADA0F13445B109AB27B8D13449BB21BB200932B4603227968F86821F0BFFE65E0FA8CBB69B3F91A309BB2396A55
:4051C00089B201FB03F39BB2D31A9BB2FB84B7F91620B7F92630D31A1A463B6A013BB2FBF3F33B81BB691B8BFB837B6BFB6242E0F86A20F0CFFA034683F00103DBB2002BB3
:405200002ED00421F86A20F049FB034683F00103DBB2002B24D0B7F92840F86A20F054FA0346E31ADA0F13445B109AB27B8D13449BB21BB2B7F91E200093134601227968BD
:40524000F86A21F075FEF86A20F030FA03461A46B7F9083013449AB2FB8B13449BB2FB83FA6A3B6B9A420BD07B680433F96A184613F052FDF862FB6A002BB9D100E000BFCF
:405280003B6B002B17D0BB69B3F91A309AB23B8D13449AB27B8D13449BB27B857B680433396B184613F038FD78637B6B3B637B6B002B7FF494AE0121786820F02BF838379C
:4052C000BD46B0BD5655555580B58AB000AF7860786820F007FAB861786820F0E7F90346FB820021786820F063F90346184620F0DDF90346BB820021786820F059F9034627
:40530000184620F0E1F903467B82B7F91620BB69B3F918305B00D21AB7F91430B969B1F91A100B4492FBF3F33B823B8A012B16D9B7F91620BB69B3F918305B00D21A3B8A47
:40534000B7F9141001FB03F3D21A3B8A013B92FBF3F39AB2BB8A13449BB27B8410E0B7F91630DA0F13445B101BB29AB2B7F91430D90F0B445B101BB29BB2D31A9BB27B8440
:40538000BB69B3F91A309AB27B8A13449BB2FB81012178681FF0AAFFBB691B8B3B84BB69DB8AFB830023BB837B680433184613F085FC78623FE0786A20F0ECF90346002B77
:4053C00031D10421786A20F069FA0346002B2AD13B8A012B0DD9B7F91E20B7F920301946786A21F067FC3A8C7B8C13449BB23B8407E0B7F91E20B7F922301946786A21F0EF
:4054000059FCBB8B0133BB83BA8B3B8A9A420BD30023BB83BB691B8B3B84FA8BFB8913449BB2FB8300E000BF7B680433796A184613F072FC78627B6A002BBCD101217868A2
:405440001FF068FF2837BD4680BD00BF80B58CB000AF7860786820F04FFAB862BB6A1B7803F01003DBB2002B07D1BB6A1B7803F02003DBB2002B00F0E580786820F032F9C9
:4054800078627B6A1B8B7B847B6ADB8A3B8407F10C031946786820F0C7F807F114031946786820F0C1F843F6FF73BB8243F6FF73FB824FF440433B834FF440437B837B6818
:4054C0000433184613F0E8FBF86236E0F86A20F061F90346002B28D1FB6AB3F91020B7F914309342A8BF13461BB2BB82FB6AB3F91220B7F916309342A8BF13461BB2FB829C
:40550000FB6AB3F91420B7F918309342B8BF13461BB23B83FB6AB3F91620B7F91A309342B8BF13461BB27B8300E000BF7B680433F96A184613F0D4FBF862FB6A002BC5D181
:40554000B7F9143043F6FF7293427CD0BB6A1B7803F01003DBB2002B10D0B7F914309AB27B8CD31A9BB21BB2BB82B7F918309AB27B8C13449BB21BB23B8307E07B68B3F99B
:405580001030BB827B68B3F914303B83BB6A1B7803F02003DBB2002B10D0B7F916309AB23B8CD31A9BB21BB2FB82B7F91A309AB23B8C13449BB21BB27B8307E07B68B3F9F8
:4055C0001230FB827B68B3F916307B837B68B3F91020B7F914309A4214D17B68B3F91220B7F916309A420DD17B68B3F91420B7F918309A4206D17B68B3F91620B7F91A3007
:405600009A4220D0786821F06BFA7B68103307F1140211461846FFF707F9786821F060FA7B689B6907F10C0202217868984778681FF0B2FFF861FB699B697A680121F86989
:40564000984700E000BF3037BD4680BD80B483B000AF78607B6893F8203018460C37BD4680BC704780B582B000AF78600B46FB701346BB7078680EF085F8BA78FB78194635
:40568000FFF7E4F90837BD4680BD00BF80B586B000AFF860B9607A603B60F86820F02CF938613B699B68002B03D03B691B7B002B01D100232EE000237B6124E03B699A68F5
:4056C0007B699B0013441B881A46BB689A4217D13B699A687B699B00134493F902301A467B689A420CD13B699A687B699B00134493F903301A463B689A4201D1012309E0BB
:405700007B6901337B613B691B7B1A467B699A42D4D8002318461837BD4680BD80B584B000AF78600B46FB70786820F0E5F8F860FB685B69002B06D0FB685A69FB789B0032
:4057400013441B6803E0FB78034A52F8233018461037BD4680BD00BF8082FF1F80B584B000AF786039603B68013B3B603B68002B02DA3B680C333B60786820F0BDF8F86024
:40578000FB689B69002B06D0FB689A693B689B0013441B6803E0044A3B6852F8233018461037BD4680BD00BF9C82FF1F90B583B000AF786039603B68013B3B603B68002BD2
:4057C00005DA7B68013B7B603B680C333B603B680B2B05DD7B6801337B603B680C3B3B603B68012B07D17B68184600F025F803461C33DBB217E03A680D4B82FB0334131936
:405800009910D317C91A0B46DB005B1AD11A094B0B40002B03DA013B63F001030133DBB2C3F11F03DBB218460C37BD4690BD00BF932449920100008080B483B000AF786057
:405840007B6803F00303002B18D17A680F4BA3FB02135B09642101FB03F3D31A002B0BD17A680A4BA3FB0213DB094FF4C87101FB03F3D31A002B01D1012300E00023DBB2A0
:4058800018460C37BD4680BC704700BF1F85EB5190B488B000AFF860B9607A60BB68022B94BF01230023DBB2FB61FA68FB69D31ABB61FA6913465B0013449B001A46BB680E
:4058C0001A4413465B019B1A3E3B154AA2FB0323DA087B681A44BB691A44BB699B081A44BB691049A1FB03135B09D21ABB690D49A1FB0313DB091A440B4BA2FB0334111B38
:4059000049080B1999080B46DB005B1AD31A7B617B69DBB218462037BD4690BC704700BFABAAAAAA1F85EB512549922480B483B000AF78607B6893F8203018460C37BD46FF
:4059400080BC704780B582B000AF78600B46FB70FB7819467868FFF753F80837BD4680BD80B582B000AF78600B46FB701346BB70BA78FB7819467868FFF768F80837BD466E
:4059800080BD00BF80B582B000AF786078681FF0A9FE034618460837BD4680BD80B586B000AF786039607A4B36227A49002013F019FA3968786805F0A7F878617B69002BA3
:4059C00006D1754B3A227349032013F00BFAFEE77B69002B01D10023D5E0704B1B68002B05D178691FF070FF02466C4B1A606C4B1B68002B05D178691FF072FF0246684B81
:405A00001A603C2178691FF0B3FC38613B69002B06D1614B41225F49032013F0E3F9FEE73B69002B01D10023ADE03B6900225A633B6900229A635B4978691FF081FC5A49C8
:405A400078691FF089FC3B68002B76D10021786905F05AF802463B695A63544B1B68002B07D13B695B6B18461FF03AFF02464F4B1A603B695B6B002118461FF0C3FB002142
:405A8000786912F0C9FB02463B699A634849786900F098F806217869FFF754FF012201217869FFF75DFF0121786905F04DF9102178691FF01BFCFBF7CFFCF860FB68002B82
:405AC00030D0FB68D3F8A8301A460021786900F08BF8FB68D3F8AC301A460121786900F083F8FB68D3F8B0301A460221786900F07BF8FB68D3F8B4301A460321786900F0B7
:405B000073F8FB68D3F8B8301A460421786900F06BF8FB68D3F8BC301A460521786900F063F823E0234A0021786900F05DF8224A0121786900F058F818E038681FF0DCFE78
:405B4000B860BB685B6B1946786904F0DDFF02463B695A63BB689B6B1946786912F05CFB02463B699A6378691FF0FEFA3B695B6B124918461FF0F0FB114B7122054901205D
:405B800013F030F97B6918461837BD4680BD00BFE8E3020004E40200C4E20200045E0020FC5D0020E95D0000AD5C0000005E00201CE40200A087FF1FCC88FF1F355D0000B7
:405BC00028E4020080B584B000AF7860396078681FF092FEF860FB689B6B3968184612F03BFC1037BD4680BD80B586B000AFF8600B467A60FB72F8681FF07EFE7861FB7ACC
:405C0000052B50D801A252F823F000BF255C0000595C0000695C0000795C0000895C0000995C00007A680021F86805F00DF97A680121F86805F008F97A680221F86805F091
:405C400003F97A680321F86805F0FEF87A680421F86805F0F9F826E07B695B6B7A680021184605F0F1F81EE07B695B6B7A680121184605F0E9F816E07B695B6B7A68022116
:405C8000184605F0E1F80EE07B695B6B7A680321184605F0D9F806E07B695B6B7A680421184605F0D1F81837BD4680BD80B588B000AFF860B9601346FB710123FB77FB7958
:405CC000022B08D11A4B1B68FA79B968F86898470346FB7726E0FB79002B02D0FB79012B18D1F8681FF008FEB861BB695B6B18461FF002FE7861BB6993F828207B6983F814
:405D000028200B4B1B68FA79B968F86898470346FB7707E0064B1B68FA79B968F86898470346FB77FB7F18462037BD4680BD00BFFC5D002080B58AB000AFF860B9601346DC
:405D4000FB71FB79022B07D1264B1B68FA79B968F8689847034640E0FB79002B33D1F8681FF0C0FC7862F8681FF016FC3862386A1FF0B8FCF861386A1FF0CAFDB861FB6998
:405D80001B7F03F00103DBB2002B03D1FB691B7A002B0ED1B86921F0D3FF02463B6A9A4207D1796AB86921F09BFF7861FB687A695A620C4B1B68FA79B968F8689847FB6884
:405DC0007A6A5A6208E0FB79012B05D1054B1B68FA79B968F8689847012318462837BD4680BD00BF005E0020B0B58AB000AFF8600B467A60FB724C4B1B68F97A7A68F86894
:405E00009847034687F8263097F82630012B02D097F8263083E0F8681FF06EFD3862FB7A032B25D13B6A9B6B1846FFF7ABFDF8613B6A5C6BFB695B6A1846FFF777FD034687
:405E40001DB2FB695B6A1846FFF770FD03461BB21A462946204620F0E1FF3B6A5C6BF86805F030F803461946204604F085FF54E0FB7A082B05D0FB7A0B2B02D0FB7A0A2BE7
:405E80000AD13B6A5C6BF86805F01CF803461946204604F071FF40E0FB7A122B1CD17B681B78FB76FB7E132B0BD0FB7E122B08D0FB7E142B05D0FB7E112B02D0FB7E0A2B38
:405EC0002AD13B6A5C6BF86804F0FCFF03461946204604F051FF20E0FB7A062B1DD17B687B61002387F827300BE097F827207B6953F82230002B08D097F82730013387F870
:405F0000273097F82730062BEFD997F827207B69064943F8221000E000BF97F8263018462837BD46B0BD00BF045E00203CE4020080B485B000AFB88039801346FB707B79E0
:405F4000C3F3C403DBB29BB2FA7892B202FB03F39AB27B78C3F3C403DBB29BB2F978C1F1FF0189B201FB03F39BB213449BB21B0A9BB2DBB203F01F03DAB27B7B62F3C70395
:405F80007B73BB88C3F34513DBB29BB2FA7892B202FB03F39AB23B88C3F34513DBB29BB2F978C1F1FF0189B201FB03F39BB213449BB21B0A9BB2DBB203F03F03DAB2BB89E3
:405FC00062F34A13BB813B79C3F30403DBB29BB2FA7892B202FB03F39AB23B78C3F30403DBB29BB2F978C1F1FF0189B201FB03F39BB213449BB21B0A9BB2DBB203F01F03D4
:40600000DAB23B7B62F304033B73BB8918461437BD4680BC704700BF80B582B000AF78603960396878681FF08DF80837BD4680BD80B586B000AF78603960604B3D22604919
:40604000002012F0CFFE3968786820F07BFA78617B69002B06D15B4B41225949032012F0C1FEFEE77B69002B01D10023A2E01C2178691FF07DF938613B69002B06D1514BF4
:4060800046224F49032012F0ADFEFEE73B69002B01D100238EE03B690821184614F0F0FC3B6900221A763B6900229A813B696422DA813B6903221A743B6905225A743B698E
:4060C0000A225A823A69137D012161F3030313753B69FF225A763B697F229A763B690222DA82394B1B68002B05D178691FF0F8FB0246354B1A60354B1B68002B05D1786941
:406100001FF0E2FB0246314B1A60314978691FF017F9304978691FF01FF93B68002B17D150226A21786920F079FEFBF795F9F860FB68002B07D0FB68D3F8843019467869C0
:40614000FFF76AFF2FE024497869FFF765FF2AE038681FF0D1FBB860BB681B7DC3F30303D9B23A69137D61F303031375BB68B3F90C203B699A81BB68B3F90E203B69DA819F
:40618000BB681A7C3B691A74BB685A7C3B695A74BB685A8A3B695A82BB685A7E3B695A7678691EF0E1FF0D4B75220549012012F019FE7B6918461837BD4680BD44E4020052
:4061C0005CE40200C4E20200085E00200C5E0020F53B0000253B0000CC88FF1F74E4020080B588B000AF7860398078681FF084FB78617B69184614F061FC38613B69002B4A
:4062000006D12D4B89222D49032012F0EBFDFEE73B69002B01D100234AE04FF44043FB813B69002B01D1002342E03B693A889A807B695B8A5B00184612F090FF02463B6967
:406240001A603B691B68002B06D11B4B93221B49032012F0C7FDFEE73B691B68002B09D17B693969184614F0DFFC386912F0B6FF00231DE03B690022DA803B691B68BB6164
:406280000023FB8308E0BB69FA891A80BB690233BB61FB8B0133FB837B695B8AFA8B9A42F1D37B691B7E0133DAB27B691A763B6918462037BD4680BDC4E202005CE4020045
:4062C00080B584B000AF786039600023FB810023BB8111E0BB899B003A6813441B682249184623F088F80346002B02D0FB890133FB81BB890133BB81BB899B003A68134469
:406300001B681B78002BE5D178681FF0F5FAB860BB685B68002B07D0BB685B68184612F05DFFBB6800225A60FB89DB00184612F015FF0246BB685A60BB685B68002B07D106
:406340000A4B40F2F9220A49032012F04BFDFEE7BB685B68002B01D10023FB81BB68FA891A841037BD4680BD84E4020088E4020098E4020080B483B000AF78607B681B78CF
:4063800003F0C003802B05D17B681B7803F00703DBB200E0012318460C37BD4680BC704780B483B000AF78607B681B7803F0C003802B07D17B681B7803F00803002B01D0FE
:4063C000012300E0002318460C37BD4680BC704780B483B000AF78607B681B7803F0C003802B07D17B681B7803F01003002B01D0012300E0002318460C37BD4680BC70470C
:4064000080B483B000AF78607B681B7803F0C003802B07D17B681B7803F02003002B01D0012300E0002318460C37BD4680BC704780B483B000AF78607B681B7803F0C0035F
:40644000802B02D17B68013300E07B6818460C37BD4680BC704700BF80B588B000AF7860396078681FF048FAB86107F11003194678681FF0D9F80023FB833EE0BB695A68C8
:40648000FB8BDB001A4407F108031146184602F07BF8B7F908309AB2B7F910309BB213449BB21BB23B81B7F90A309AB2B7F912309BB213449BB21BB27B81B7F90C309AB248
:4064C000B7F910309BB213449BB21BB2BB81B7F90E309AB2B7F912309BB213449BB21BB2FB8107F108033968184613F02BFF0346002B07D1FB8B0133FB83BB691B8CFA8B49
:406500009A42BBD3BB691B8CFA8B9A4202D14FF6FF73FB83FB8B18462037BD4680BD00BF80B584B000AF78600B467B8078681FF0E3F9B860BB681B8C7A889A4202D94FF69C
:40654000FF7327E00023FB810023BB8115E0BB890133BB81FB890133FB81BB681A68FB899B0013441B680D49184622F044FF0346002B02D1FB890133FB81BA897B889A4283
:40658000E5D1BB681B8CBA899A4202D14FF6FF7300E0FB8918461037BD4680BD84E4020080B582B000AF7860396008223968786822F016FF0837BD4680BD00BF80B483B001
:4065C00000AF78607B68B3F904309AB27B68B3F900309BB2D31A9BB201339BB21BB218460C37BD4680BC704780B483B000AF78607B6893F8203018460C37BD4680BC704797
:4066000080B586B000AF786039608F4B4F228F49002012F0E7FB396878681FF093FF78617B69002B06D18A4B53228849032012F0D9FBFEE77B69002B01D1002379E1482107
:4066400078691EF095FE38613B69002B06D1804B58227E49032012F0C5FBFEE73B69002B01D1002365E17B4B1B68002B05D178691FF02AF90246774B1A60774B1B68002B28
:4066800005D178691FF02CF90246734B1A603B6940F2E2721A803B6901229A703B690122DA703B6940F2E2729A803B6901229A713B690122DA713B690022DA813B690022BA
:4066C0001A743B6900225A743B6900229A603B6900221A733B6900225A613B6900229A613B6900221A623B690022DA613B6900225A623B6900229A623B69584ADA623B6976
:40670000574A1A633B69554A9A633B69554ADA633B69524A1A643B69514A5A643B69524A5A63524978691EF00BFE514978691EF013FE3B68002B40F09D80C822C8217869C7
:4067400020F06CFB484978691EF0FCFCFAF784FEF860FB68002B40D0FB68D3F888301A460021786900F042F9FB68D3F88C301A460121786900F03AF9FB68D3F890301A4690
:406780000221786900F032F9FB68D3F894301A460321786900F02AF9FB68D3F8A0301A460621786900F022F9FB68D3F8A4301A460721786900F01AF9FB68D3F898301A461B
:4067C0000421786900F012F9FB68D3F89C301A460521786900F00AF9A4E0234A0021786900F004F93B69DB6A1A460121786900F0FDF83B691B6B1A460221786900F0F6F8C7
:406800003B695B6B1A460321786900F0EFF83B691B6C1A460621786900F0E8F83B695B6C1A460721786900F0E1F83B699B6B1A460421786900F0DAF83B69DB6B1A46052170
:40684000786900F0D3F86DE0B0E40200C8E4020088E40200EC5D0020F05D00209088FF1F0889FF1F348AFF1FCC88FF1F756B0000116B000038681FF03FF8B860BB681A8855
:406880003B691A80BB6893F902203B699A70BB6893F903203B69DA70BB689A883B699A80BB6893F906203B699A71BB6893F907203B69DA71BB689A683B699A60BB681A7B94
:4068C0003B691A73BB685A693B695A613B6903F11C00BB681C331022194622F081FDBB689A693B699A61BB68DA6A3B69DA62BB681A6B3B691A63BB689A6B3B699A63BB681A
:40690000DA6B3B69DA63BB681A6C3B691A64BB685A6C3B695A64BB685A6B3B695A6378691EF022FC054BB7220549012012F05AFA7B6918461837BD4680BD00BFE4E402007D
:40694000C8E4020080B584B000AF7860396078681EF0D2FFF8603B681A88FB681A803B6893F90220FB689A703B6893F90320FB68DA70786820F0B4F81037BD4680BD00BFE8
:4069800080B584B000AF7860396078681EF0B4FFF8603B681A88FB689A803B6893F90220FB689A713B6893F90320FB68DA71786820F096F81037BD4680BD00BF80B586B0A5
:4069C00000AFF860B9601346FB80F8681EF094FF78617B69BA689A60FB88DAB27B691A73F86820F07DF81837BD4680BD80B586B000AFF8600B467A60FB72F8681EF07CFFE2
:406A00007861FB7A072B33D801A252F823F000BF316A0000436A00004B6A00003B6A0000536A00005B6A00006B6A0000636A00007968F8681EF086FB1AE07B697A685A63F9
:406A400016E07B697A68DA6212E07B697A681A630EE07B697A689A630AE07B697A68DA6306E07B697A685A6402E07B697A681A64F86820F035F81837BD4680BD80B584B026
:406A800000AF78600B46FB700023FB6078681EF033FFB860FB78072B33D801A252F823F0C16A0000CB6A0000D36A0000DB6A0000E36A0000EB6A0000F36A0000FB6A0000E7
:406AC00078681EF00FFEF8601DE0BB68DB6AFB6019E0BB681B6BFB6015E0BB685B6BFB6011E0BB689B6BFB600DE0BB68DB6BFB6009E0BB681B6CFB6005E0BB685B6CFB600F
:406B000001E00023FB60FB6818461037BD4680BD90B587B000AFF860B9601346FB71FB79022B01D1002321E0FB79002B1DD1F8681EF094FE0346FB75FB6803F110040021E4
:406B4000F868FFF79BFF0246FB7DB968204618F08DF8B968F86800F0B9FBB968F86800F089FCB968F86800F015FD012318461C37BD4690BDB0B594B000AFF8600B467A60B3
:406B8000FB72A74B1B68F97A7A68F8689847034687F84F3097F84F30012B02D097F84F30D2E1FB7A002B00F0CD81FB7A082B2ED1F8681EF0A1FEB864BB6C1B6A002B00F0D6
:406BC000C18121F017F9786407F110031946786C21F068F907F110031946F86800F0BAF90346002B00F0AE81BB6C93F90D30002B02D0F8681FF074FFBB6C00225A73BB6C8A
:406C00001B6AF8689847034687F84F309AE1FB7A092B7FD1F8681EF06FFE3864FB6803F1100207F1180311461846FFF7B9FCB7F91A309CB2F86800F00DFB03469BB22344E5
:406C40009BB21BB2FB8321F0D5F8F86307F114031946F86B21F026F907F1140207F118031146184613F06EFB0346002B2ED0B7F914301C46B7F918301D4607F1180318466C
:406C8000FFF79CFC0346DA0F13445B101BB22B449C420CDA3B6C93F90D30B3F1FF3F02D0F8681FF01DFF3B6CFF225A730AE03B6C93F90D30012B02D0F8681FF011FF3B6C90
:406CC00001225A733B6C0022DA813BE107F114031946F86800F03EF90346002B0BD03B6C93F90D30002B02D0F8681FF0F9FE3B6C00225A7326E13B6C93F90D30002B02D043
:406D0000F8681FF0EDFE3B6C00225A733B6C0022DA8117E1FB7A0A2B0DD1F8681EF0ECFDB863BB6B0022DA81BB6B00225A73F8681FF0D6FE06E1FB7A0B2B58D1F8681EF029
:406D4000DBFD78637B6B93F90D30002B18DA7B6B93F90630012B09DC7B6B0C229A717B6B9B88013B9AB27B6B9A8036E07B6B93F90630DBB2013BDBB25AB27B6B9A712CE00E
:406D80007B6B93F90D30002B18DD7B6B93F906300B2B09DD7B6B01229A717B6B9B8801339AB27B6B9A8018E07B6B93F90630DBB20133DBB25AB27B6B9A710EE07B6BDB8980
:406DC000002B0AD07B6BDB69002B06D07B6BDB69F8689847034687F84F307B6B0022DA817B6B00225A73F8681FF07AFEAAE0FB7A0C2B17D1F8681EF07FFD38633B6B5B6A86
:406E0000002B00F09A803B6BDB89002B00F095803B6B5B6AF8689847034687F84F3091E0EC5D0020FB7A0D2B14D1F8681EF064FDF862FB6A9B6A002B00F08180FB6ADB890E
:406E4000002B7CD0FB6A9B6AF8689847034687F84F3077E0FB7A122B4FD17B681B7887F82B30F8681EF048FD786297F82B30132B03D097F82B30112B1BD17B6A93F90630F1
:406E80000B2B09DD7B6A01229A717B6A9B8801339AB27B6A9A8008E07B6A93F90630DBB20133DBB25AB27B6A9A71F8681FF018FE47E097F82B30142B03D097F82B30122B74
:406EC0003FD17B6A93F90630012B09DC7B6A0C229A717B6A9B88013B9AB27B6A9A8008E07B6A93F90630DBB2013BDBB25AB27B6A9A71F8681FF0F4FD24E0FB7A062B21D140
:406F00007B683B62002387F84E300BE097F84E203B6A53F82230002B08D097F84E30013387F84E3097F84E30062BEFD997F84E203B6A074943F8221004E000BF02E000BF9D
:406F400000E000BF97F84F3018465037BD46B0BDF8E40200B0B58AB000AF786039607B6803F1100207F10C0311461846FFF718FB00217868FFF782FD3862B7F90C309AB27C
:406F80003B6AB3F918309BB213449BB21BB2BB81B7F910309AB23B6AB3F918309BB2D31A9BB21BB23B827B68B3F912309CB2786800F050F903469BB223449CB2786800F005
:406FC00067F903469BB223449AB23B6AB3F916309BB2D31A9BB21BB2FB8107F10C033968184613F0AFF90346002B00F02A81B7F910301A46B7F90C30D31A0133934A82FB0A
:4070000003121A449210DB17D31AFB83B7F912301A46B7F90E30D31A01338D4A82FB0312DB17D31ABB83002387F827303B68B3F900301A46B7F90C30D21AB7F91E3092FBBC
:40704000F3F387F8273097F82730062B02D9062387F82730002387F826303B68B3F902301A46B7F90E30D21AB7F91C3092FBF3F387F8263097F82630052B02D9052387F8D5
:4070800026300023FB7697F826301A46D200D31ADAB297F827301344FB7678681EF02CFC78617B699B8818467B6993F9063001221946FEF7EDFB03461A46FB7E934240D246
:4070C0007B699A887B6993F90630012B0CBF01230023DBB29BB2D31A9AB27B69DA817B6993F90630012B07D07B6993F90630DBB2013BDBB25AB200E00C227B691A747B693F
:40710000DB891A467B6993F9103019461046FEF74DFB03461C467B699B8818467B6993F9063001221946FEF7B3FB0346E31ADAB2FB7E1344DBB20133DBB25AB27B695A7460
:407140007DE0FC7E7B699B8818467B6993F9063001221946FEF79CFB03461D467B699B881A467B6993F9063019461046FEF71EFB03462B449C421DDA7B699A887B69DA81D1
:407180007B6993F906207B691A747B699B8818467B6993F9063001221946FEF779FB03461A46FB7E9B1ADBB20133DBB25AB27B695A7444E0FB7E292B41D87B699A887B69FA
:4071C00093F906300C2B0CBF01230023DBB29BB213449AB27B69DA817B6993F906300C2B07D07B6993F90630DBB20133DBB25AB200E001227B691A747B699B8818467B6956
:4072000093F9063001221946FEF742FB03461A46FB7E9B1ADCB27B699B881A467B6993F9063019461046FEF7C1FA03465B42DBB22344DBB20133DBB25AB27B695A740123F7
